:020000040800F2
:100000000000042055F40108B1BD0108B3BD01088A
:10001000B5BD0108B7BD0108B9BD01080000000069
:10002000000000000000000000000000BBBD01084F
:10003000BDBD010800000000BFBD0108C1BD010831
:10004000A5F40108A5F40108A5F40108A5F4010828
:10005000A5F40108A5F401084DA7010865A701084A
:10006000A5F40108A5F40108A5F40108A5F4010808
:10007000A5F40108A5F40108A5F40108A5F40108F8
:10008000A5F40108A5F40108A5F40108A5F40108E8
:10009000A5F40108A5F40108A5F401087DA701084D
:1000A000EDA60108A5F40108A5F40108A5F40108CE
:1000B000A5F40108A5F4010861A60108A5F401084A
:1000C000A5F40108A5F40108A5F40108A5F40108A8
:1000D000A5F4010889BC0108FDBC0108A5F40108CC
:1000E000D9A70108A5F40108A5F40108A5F40108A1
:1000F000A5F40108A5F40108A5F40108A5F4010878
:1001000000000000A5F4010841A60108A5F40108BB
:100110000000000000000000A5F40108A5F401089B
:10012000A5F40108A5F40108A5F40108A5F4010847
:10013000A5F40108A5F40108A5F40108A5F4010837
:10014000A5F40108A5F40108A5F40108D1BD010832
:10015000A5F40108A5F40108A5F40108A5F4010817
:10016000A5F40108A5F4010800000000000000004B
:10017000000000000000000000000000000000007F
:10018000A5F40108A5F4010800000000000000002B
:10019000A5F40108A5F4010800000000000000001B
:1001A000000000000000000000000000000000004F
:1001B000A5F401080000000000000000A5F40108FB
:0401C000A5F4010899
:1001D00010B5054C237833B9044B13B10448AFF381
:1001E00000800123237010BDD80A00200000000009
:1001F000A8F4010808B5034B1BB103490348AFF34A
:10020000008008BD00000000DC0A0020A8F40108FE
:1002100010F8012B11F8013B012A28BF9A42F7D0B0
:10022000D01A7047034613F8012B002AFBD1181A85
:1002300001387047000000000000000000000000CE
:1002400001F0FF01102A2BDB10F0070F08D010F887
:10025000013B013A8B422DD010F0070F42B3F6D18B
:10026000F0B441EA012141EA014122F007047FF0A4
:1002700000070023F0E80256083C85EA010586EAFB
:10028000010685FA47F5A3FA87F586FA47F6A5FA37
:1002900087F68EB9EED1F0BC01F0FF0102F0070243
:1002A00032B110F8013B013A83EA010313B1F8D1EE
:1002B0000020704701387047002D06BF35460338CF
:1002C000073815F0010F07D1013015F4807F02BF08
:1002D000013015F4C03F0130F0BC0138704700BF59
:1002E00081F0004102E000BF83F0004330B54FEAE7
:1002F00041044FEA430594EA050F08BF90EA020F54
:100300001FBF54EA000C55EA020C7FEA645C7FEAE6
:10031000655C00F0E2804FEA5454D4EB5555B8BF09
:100320006D420CDD2C4480EA020281EA030382EA7A
:10033000000083EA010180EA020281EA0303362D0C
:1003400088BF30BD11F0004F4FEA01314FF4801CDF
:100350004CEA113102D0404261EB410113F0004FF1
:100360004FEA03334CEA133302D0524263EB4303A8
:1003700094EA050F00F0A780A4F10104D5F1200E46
:100380000DDB02FA0EFC22FA05F2801841F10001A1
:1003900003FA0EF2801843FA05F359410EE0A5F175
:1003A00020050EF1200E012A03FA0EFC28BF4CF0A6
:1003B000020C43FA05F3C01851EBE37101F000455C
:1003C00007D54FF0000EDCF1000C7EEB00006EEB69
:1003D0000101B1F5801F1BD3B1F5001F0CD34908F3
:1003E0005FEA30004FEA3C0C04F101044FEA44524A
:1003F00012F5800F80F09A80BCF1004F08BF5FEAD1
:10040000500C50F1000041EB045141EA050130BDB0
:100410005FEA4C0C404141EB010111F4801FA4F153
:100420000104E9D191F0000F04BF01460020B1FAA8
:1004300081F308BF2033A3F10B03B3F120020CDAE0
:100440000C3208DD02F1140CC2F10C0201FA0CF0BE
:1004500021FA02F10CE002F11402D8BFC2F1200C23
:1004600001FA02F120FA0CFCDCBF41EA0C019040D9
:10047000E41AA2BF01EB0451294330BD6FEA040422
:100480001F3C1CDA0C340EDC04F11404C4F120020D
:1004900020FA04F001FA02F340EA030021FA04F31F
:1004A00045EA030130BDC4F10C04C4F1200220FA76
:1004B00002F001FA04F340EA0300294630BD21FAB4
:1004C00004F0294630BD94F0000F83F4801306BF7A
:1004D00081F480110134013D4EE77FEA645C18BF6E
:1004E0007FEA655C29D094EA050F08BF90EA020F05
:1004F00005D054EA000C04BF1946104630BD91EAFD
:10050000030F1EBF0021002030BD5FEA545C05D1FF
:100510004000494128BF41F0004130BD14F580043E
:100520003CBF01F5801130BD01F0004545F0FE41B2
:1005300041F470014FF0000030BD7FEA645C1ABFE7
:10054000194610467FEA655C1CBF0B46024650EA1E
:10055000013406BF52EA033591EA030F41F400214A
:1005600030BD00BF90F0000F04BF0021704730B5D0
:100570004FF4806404F132044FF000054FF00001A5
:1005800050E700BF90F0000F04BF0021704730B566
:100590004FF4806404F1320410F0004548BF40423B
:1005A0004FF000013EE700BF42004FEAE2014FEA90
:1005B00031014FEA02701FBF12F07F4393F07F4F6B
:1005C00081F06051704732F07F4208BF704793F06E
:1005D0007F4F04BF41F40021704730B54FF4607481
:1005E00001F0004521F000411CE700BF50EA010284
:1005F00008BF704730B54FF000050AE050EA01022D
:1006000008BF704730B511F0004502D5404261EB9C
:1006100041014FF4806404F132045FEA915C3FF4DD
:10062000D8AE4FF003025FEADC0C18BF03325FEA7A
:10063000DC0C18BF033202EBDC02C2F1200300FA2B
:1006400003FC20FA02F001FA03FE40EA0E0021FA50
:1006500002F11444BDE600BF70B54FF0FF0C4CF43E
:10066000E06C1CEA11541DBF1CEA135594EA0C0FF0
:1006700095EA0C0F00F0DEF82C4481EA030621EA2B
:100680004C5123EA4C5350EA013518BF52EA033566
:1006900041F4801143F4801338D0A0FB02CE4FF018
:1006A0000005E1FB02E506F00042E0FB03E54FF048
:1006B0000006E1FB03569CF0000F18BF4EF0010E40
:1006C000A4F1FF04B6F5007F64F5407404D25FEA3C
:1006D0004E0E6D4146EB060642EAC62141EA5551EF
:1006E0004FEAC52040EA5E504FEACE2EB4F1FD0C31
:1006F00088BFBCF5E06F1ED8BEF1004F08BF5FEAAF
:10070000500E50F1000041EB045170BD06F0004660
:1007100046EA010140EA020081EA0301B4EB5C040D
:10072000C2BFD4EB0C0541EA045170BD41F4801105
:100730004FF0000E013C00F3AB8014F1360FDEBF2A
:10074000002001F0004170BDC4F10004203C35DA06
:100750000C341BDC04F11404C4F1200500FA05F389
:1007600020FA04F001FA05F240EA020001F000422A
:1007700021F0004110EBD37021FA04F642EB0601A0
:100780005EEA430E08BF20EAD37070BDC4F10C04CA
:10079000C4F1200500FA04F320FA05F001FA04F28E
:1007A00040EA020001F0004110EBD37041F100017A
:1007B0005EEA430E08BF20EAD37070BDC4F1200585
:1007C00000FA05F24EEA020E20FA04F301FA05F2ED
:1007D00043EA020321FA04F001F0004121FA04F295
:1007E00020EA020000EBD3705EEA430E08BF20EA65
:1007F000D37070BD94F0000F0FD101F0004640009F
:1008000041EB010111F4801F08BF013CF7D041EA20
:10081000060195F0000F18BF704703F00046520024
:1008200043EB030313F4801F08BF013DF7D043EAF5
:100830000603704794EA0C0F0CEA135518BF95EAAB
:100840000C0F0CD050EA410618BF52EA4306D1D132
:1008500081EA030101F000414FF0000070BD50EA51
:10086000410606BF1046194652EA430619D094EADB
:100870000C0F02D150EA013613D195EA0C0F05D1C5
:1008800052EA03361CBF104619460AD181EA030119
:1008900001F0004141F0FE4141F470014FF00000D1
:1008A00070BD41F0FE4141F4780170BD70B54FF06C
:1008B000FF0C4CF4E06C1CEA11541DBF1CEA1355EC
:1008C00094EA0C0F95EA0C0F00F0A7F8A4EB0504CE
:1008D00081EA030E52EA03354FEA013100F08880C5
:1008E0004FEA03334FF0805545EA131343EA12638E
:1008F0004FEA022245EA111545EA10654FEA002643
:100900000EF000419D4208BF964244F1FD0404F5FB
:10091000407402D25B084FEA3202B61A65EB030557
:100920005B084FEA32024FF480104FF4002CB6EB14
:10093000020E75EB030E22BFB61A754640EA0C0094
:100940005B084FEA3202B6EB020E75EB030E22BFD4
:10095000B61A754640EA5C005B084FEA3202B6EB15
:10096000020E75EB030E22BFB61A754640EA9C00D4
:100970005B084FEA3202B6EB020E75EB030E22BFA4
:10098000B61A754640EADC0055EA060E18D04FEA62
:10099000051545EA16754FEA06164FEAC30343EA02
:1009A00052734FEAC2025FEA1C1CC0D111F4801FCF
:1009B0000BD141EA00014FF000004FF0004CB6E7C8
:1009C00011F4801F04BF01430020B4F1FD0C88BF67
:1009D000BCF5E06F3FF6AFAEB5EB030C04BFB6EB72
:1009E000020C5FEA500C50F1000041EB045170BD65
:1009F0000EF0004E4EEA113114EB5C04C2BFD4EB92
:100A00000C0541EA045170BD41F480114FF0000E15
:100A1000013C90E645EA060E8DE60CEA135594EA91
:100A20000C0F08BF95EA0C0F3FF43BAF94EA0C0F94
:100A30000AD150EA01347FF434AF95EA0C0F7FF409
:100A400025AF104619462CE795EA0C0F06D152EA5D
:100A500003353FF4FDAE1046194622E750EA410641
:100A600018BF52EA43067FF4C5AE50EA41047FF452
:100A70000DAF52EA43057FF4EBAE12E74A0011D204
:100A800012F5001211D20DD56FF47873B3EB6252E8
:100A90000ED44FEAC12343F0004343EA505323FAF4
:100AA00002F070474FF00000704750EA013002D169
:100AB0004FF0FF3070474FF0000070474FEA41029F
:100AC000B2F1E04324BFB3F5001CDCF1FE5C0DD9AC
:100AD00001F0004C4FEAC0024CEA5070B2F1004FF6
:100AE00040EB830008BF20F00100704711F0804FF9
:100AF00021D113F13872BCBF01F00040704741F4BE
:100B000080114FEA5252C2F11802C2F1200C10FAC1
:100B10000CF320FA02F018BF40F001004FEAC123A5
:100B20004FEAD32303FA0CFC40EA0C0023FA02F349
:100B30004FEA4303CCE77FEA625307D150EA01331F
:100B40001EBF4FF0FE4040F44000704701F00040EF
:100B500040F0FE4040F40000704700BF80F00040CD
:100B600002E000BF81F0004142001FBF5FEA410385
:100B700092EA030F7FEA226C7FEA236C6AD04FEA85
:100B80001262D2EB1363C1BFD218414048404140CA
:100B9000B8BF5B42192B88BF704710F0004F40F47C
:100BA000000020F07F4018BF404211F0004F41F498
:100BB000000121F07F4118BF494292EA030F3FD064
:100BC000A2F1010241FA03FC10EB0C00C3F1200377
:100BD00001FA03F100F0004302D5494260EB400006
:100BE000B0F5000F13D3B0F1807F06D340084FEA71
:100BF000310102F10102FE2A51D2B1F1004F40EB66
:100C0000C25008BF20F0010040EA030070474900CD
:100C100040EB000010F4000FA2F10102EDD1B0FA98
:100C200080FCACF1080CB2EB0C0200FA0CF0AABF8D
:100C300000EBC25052421843BCBFD040184370472B
:100C400092F0000F81F4000106BF80F40000013231
:100C5000013BB5E74FEA41037FEA226C18BF7FEA08
:100C6000236C21D092EA030F04D092F0000F08BF4A
:100C70000846704790EA010F1CBF0020704712F031
:100C80007F4F04D1400028BF40F00040704712F170
:100C900000723CBF00F50000704700F0004343F0D5
:100CA000FE4040F4000070477FEA226216BF08460B
:100CB0007FEA23630146420206BF5FEA412390EACE
:100CC000010F40F4800070474FF0000304E000BFC4
:100CD00010F0004348BF40425FEA000C08BF704775
:100CE00043F0964301464FF000001CE050EA010239
:100CF00008BF70474FF000030AE000BF50EA01024E
:100D000008BF704711F0004302D5404261EB41013A
:100D10005FEA010C02BF84460146002043F0B6435F
:100D200008BFA3F18053A3F50003BCFA8CF2083A84
:100D3000A3EBC25310DB01FA02FC634400FA02FC8D
:100D4000C2F12002BCF1004F20FA02F243EB020094
:100D500008BF20F00100704702F1200201FA02FCF6
:100D6000C2F1200250EA4C0021FA02F243EB0200E9
:100D700008BF20EADC7070474FF0FF0C1CEAD0522D
:100D80001EBF1CEAD15392EA0C0F93EA0C0F6FD0EE
:100D90001A4480EA010C400218BF5FEA41211ED0CC
:100DA0004FF0006343EA501043EA5111A0FB0131B8
:100DB0000CF00040B1F5000F3EBF490041EAD3718D
:100DC0005B0040EA010062F17F02FD2A1DD8B3F109
:100DD000004F40EBC25008BF20F00100704790F078
:100DE000000F0CF0004C08BF49024CEA502040EACA
:100DF00051207F3AC2BFD2F1FF0340EAC250704790
:100E000040F400004FF00003013A5DDC12F1190FCD
:100E1000DCBF00F000407047C2F10002410021FA3F
:100E200002F1C2F1200200FA02FC5FEA310040F157
:100E3000000053EA4C0308BF20EADC70704792F0D0
:100E4000000F00F0004C02BF400010F4000F013A08
:100E5000F9D040EA0C0093F0000F01F0004C02BF03
:100E6000490011F4000F013BF9D041EA0C018FE772
:100E70000CEAD15392EA0C0F18BF93EA0C0F0AD078
:100E800030F0004C18BF31F0004CD8D180EA01009E
:100E900000F00040704790F0000F17BF90F0004F37
:100EA000084691F0000F91F0004F14D092EA0C0F19
:100EB00001D142020FD193EA0C0F03D14B0218BFAC
:100EC000084608D180EA010000F0004040F0FE40F2
:100ED00040F40000704740F0FE4040F4400070478E
:100EE0004FF0FF0C1CEAD0521EBF1CEAD15392EA0D
:100EF0000C0F93EA0C0F69D0A2EB030280EA010CFD
:100F000049024FEA402037D04FF0805343EA111195
:100F100043EA10130CF000408B4238BF5B0042F1F3
:100F20007D024FF4000C8B4224BF5B1A40EA0C0098
:100F3000B3EB510F24BFA3EB510340EA5C00B3EBCA
:100F4000910F24BFA3EB910340EA9C00B3EBD10FB8
:100F500024BFA3EBD10340EADC001B0118BF5FEA0A
:100F60001C1CE0D1FD2A3FF650AF8B4240EBC25033
:100F700008BF20F0010070470CF0004C4CEA5020F4
:100F80007F32C2BFD2F1FF0340EAC250704740F443
:100F900000004FF00003013A37E792F0000F00F035
:100FA000004C02BF400010F4000F013AF9D040EAB3
:100FB0000C0093F0000F01F0004C02BF490011F447
:100FC000000F013BF9D041EA0C0195E70CEAD1533F
:100FD00092EA0C0F08D142027FF47DAF93EA0C0F26
:100FE0007FF470AF084676E793EA0C0F04D14B020A
:100FF0003FF44CAF08466EE730F0004C18BF31F0BC
:10100000004CCAD130F000427FF45CAF31F00043B5
:101010007FF43CAF5FE700BF4FF0FF3C06E000BF4E
:101020004FF0010C02E000BF4FF0010C4DF804CD71
:101030004FEA40024FEA41037FEA226C18BF7FEA81
:10104000236C11D001B052EA530C18BF90EA010F83
:1010500058BFB2EB030088BFC81738BF6FEAE17012
:1010600018BF40F0010070477FEA226C02D15FEAAE
:10107000402C05D17FEA236CE4D15FEA412CE1D01A
:101080005DF8040B704700BF844608466146FFE7E1
:101090000FB5FFF7C9FF002848BF10F1000F0FBDC3
:1010A0004DF808EDFFF7F4FF0CBF012000205DF8BC
:1010B00008FB00BF4DF808EDFFF7EAFF34BF012041
:1010C00000205DF808FB00BF4DF808EDFFF7E0FFDA
:1010D00094BF012000205DF808FB00BF4DF808ED2B
:1010E000FFF7D2FF94BF012000205DF808FB00BF8E
:1010F0004DF808EDFFF7C8FF34BF012000205DF870
:1011000008FB00BF4FEA40024FEA41037FEA226C2E
:1011100002D15FEA402C08D17FEA236C02D15FEA5A
:10112000412C02D14FF0000070474FF00100704792
:101130004FEA4002B2F1FE4F0FD34FF09E03B3EBE4
:1011400012620DD94FEA002343F0004310F0004F24
:1011500023FA02F018BF404270474FF0000070477A
:1011600012F1610F01D1420205D110F0004008BF19
:101170006FF0004070474FF00000704742000ED201
:10118000B2F1FE4F0BD34FF09E03B3EB126209D4C2
:101190004FEA002343F0004323FA02F070474FF078
:1011A0000000704712F1610F01D1420202D14FF0ED
:1011B000FF3070474FF00000704700BF53B94AB985
:1011C000002908BF00281CBF4FF0FF314FF0FF304F
:1011D00000F072B9ADF1080C6DE904CE00F006F82C
:1011E000DDF804E0DDE9022304B070472DE9F047A3
:1011F000089E04468846002B4BD18A42154667D983
:10120000B2FA82F24AB1C2F1200701FA02F320FADF
:1012100007F7954047EA030894404FEA154E230C20
:10122000B8FBFEF71FFA85FC0EFB178843EA08435C
:1012300007FB0CF1994209D9EB1807F1FF3080F058
:101240001B81994240F21881023F2B445B1AA4B2E1
:10125000B3FBFEF00EFB103344EA034400FB0CFC2E
:10126000A44509D92C1900F1FF3380F00781A4456A
:1012700040F2048102382C4440EA0740A4EB0C04FD
:1012800000271EB1D4400023C6E900433946BDE81B
:10129000F0878B4209D9002E00F0EB800027C6E9C9
:1012A000000138463946BDE8F087B3FA83F7002FCE
:1012B00047D18B4202D3824200F2FA80841A61EB5A
:1012C000030301209846002EE0D0C6E90048DDE780
:1012D00002B9FFDEB2FA82F2002A40F08F80491B89
:1012E0004FEA154E1FFA85F80127B1FBFEFC230CCF
:1012F0000EFB1C1143EA014308FB0CF1994207D98C
:10130000EB180CF1FF3002D2994200F2CD808446F6
:10131000591AA3B2B1FBFEF00EFB101443EA0444C9
:1013200008FB00F8A04507D92C1900F1FF3302D2C1
:10133000A04500F2B6801846A4EB080440EA0C4031
:101340009FE7C7F1200CBB4022FA0CFE4EEA030EC9
:1013500001FA07F420FA0CF521FA0CF34FEA1E48C3
:101360002543B3FBF8F92C0C08FB19331FFA8EFA4E
:1013700044EA034309FB0AF49C4202FA07F200FA2A
:1013800007F10BD91EEB030309F1FF3080F08780D2
:101390009C4240F28480A9F1020973441B1BADB248
:1013A000B3FBF8F008FB103345EA034400FB0AFAEC
:1013B000A24508D91EEB040400F1FF336BD2A2450D
:1013C00069D90238744440EA0940A0FB0289A4EBC1
:1013D0000A044C45C2464B4654D351D0002E69D026
:1013E000B1EB0A0564EB030404FA0CFCFD40FC407D
:1013F0004CEA0505C6E90054002747E7C2F120037F
:1014000020FA03F7954001FA02F021FA03F34FEABC
:10141000154E3843010CB3FBFEF71FFA85F80EFB9F
:10142000173341EA034107FB08F38B4204FA02F445
:1014300007D9691807F1FF3C2FD28B422DD9023F03
:101440002944CB1A81B2B3FBFEF00EFB103341EA04
:10145000034100FB08F38B4207D9691800F1FF3CF8
:1014600017D28B4215D902382944C91A40EA0747D6
:101470003BE73746304609E70746E7E61846FBE60E
:101480004145ABD2B8EB020A69EB0E0201381346B4
:10149000A4E76046E9E7184695E76746D1E7814645
:1014A0007CE702382C4447E7ACF1020C2B442FE7D1
:1014B000384608E73746E9E6704700BF4FF0FF3C83
:1014C00006E000BF4FF0010C02E000BF4FF0010C3E
:1014D0004DF804CD4FEA410C7FEA6C5C4FEA430CB7
:1014E00018BF7FEA6C5C1BD001B050EA410C0CBF06
:1014F00052EA430C91EA030F02BF90EA020F002068
:10150000704710F1000F91EA030F58BF994208BFCE
:1015100090422CBFD8176FEAE37040F0010070478B
:101520004FEA410C7FEA6C5C02D150EA013C07D1E2
:101530004FEA430C7FEA6C5CD6D152EA033CD3D02D
:101540005DF8040B704700BF8446104662468C4627
:101550001946634600E000BF01B5FFF7B7FF00285A
:1015600048BF10F1000F01BD4DF808EDFFF7F4FF83
:101570000CBF012000205DF808FB00BF4DF808ED0E
:10158000FFF7EAFF34BF012000205DF808FB00BF31
:101590004DF808EDFFF7E0FF94BF012000205DF853
:1015A00008FB00BF4DF808EDFFF7CEFF94BF012008
:1015B00000205DF808FB00BF4DF808EDFFF7C4FF01
:1015C00034BF012000205DF808FB00BF7047000019
:1015D00010B5094B4FF0FF3200241A621C625A62A8
:1015E0005C621A611C615A615C619A619C61FFF7DF
:1015F000EDFF204610BD00BF0038024038B50E4A4E
:101600000E4B054618784FF47A73B3FBF0F310686D
:10161000B0FBF3F000F0BEF8044658B90F2D09D81E
:10162000024629464FF0FF3000F05EF8044B20469A
:101630001D6038BD0120FCE7FC08002000000020F0
:101640000400002008B50B4B1A6842F400721A60BF
:101650001A6842F480621A601A6842F480721A6052
:10166000032000F02FF80F20FFF7C8FF1AF082FBCD
:10167000002008BD003C0240034A044B11681B785F
:101680000B441360704700BF4C3400200000002062
:10169000014B1868704700BF4C34002038B5044631
:1016A000FFF7F6FF631C1CBF054B1B78054618BFF0
:1016B000E418FFF7EDFF401BA042FAD338BD00BF8E
:1016C00000000020074AD36823F4E0631B041B0CCE
:1016D00043F0BF63000243F4003300F4E0600343CF
:1016E000D360704700ED00E0174B70B5DC68C4F3C1
:1016F0000224C4F10705042D04F1040328BF0425C6
:101700004FF0FF36062B06FA05F38CBF033C00248E
:1017100021EA0303A34006FA04F422EA04040028A1
:1017200043EA0403A8BF00F160404FEA0313BCBFC3
:1017300000F00F00054ADBB2AABF00F56140135468
:1017400080F8003370BD00BF00ED00E014ED00E054
:10175000002808DB4209012300F01F0003FA00F013
:10176000014B43F82200704700E100E000280DDB48
:101770004309012200F01F0002FA00F02033044A5E
:1017800042F82300BFF34F8FBFF36F8F704700BF46
:1017900000E100E00138B0F1807F0AD2064B074A31
:1017A0005860F02182F823100020072298601A6008
:1017B00070470120704700BF10E000E000ED00E03E
:1017C000094910B50C6924F440740C610C6944F4A7
:1017D00040740C610C6944F001040C610260BFF3B9
:1017E0006F8F436010BD00BF003C0240074B1A6979
:1017F00022F440721A611A6942F400721A611A697D
:1018000042F001021A610160704700BF003C0240D3
:10181000074B1A6922F440721A611A6942F4807205
:101820001A611A6942F001021A610180704700BF13
:10183000003C0240204BDA68D00606D51F49CA6931
:1018400042F01002CA611022DA60DA68910606D509
:101850001A49CA6942F00802CA612022DA60164BAE
:10186000DA68520606D51549CA6942F00402CA610F
:101870004022DA60DA68100606D51049CA6942F0DB
:101880000202CA618022DA600B4BDA68D10507D503
:101890000A49CA6942F00102CA614FF48072DA60F3
:1018A000DA68920706D50549CA6942F02002CA6182
:1018B0000222DA60704700BF003C02405034002032
:1018C000064B1A69002ABFBF054A5A6002F18832E6
:1018D0005A60BABF1869C00F00207047003C024030
:1018E00023016745034A136943F000431361002055
:1018F000704700BF003C0240F8B5124B124C00226A
:101900000546DA61FFF7C4FE26460746E368DA03B8
:101910000CD4E368DB0744BF0123E360F06810F4F4
:10192000F97007D0FFF786FF012003E0691CEDD0B6
:101930000DB90320F8BDFFF7ABFEC01BA842E5D9E7
:10194000F7E700BF50340020003C02402DE9F04191
:101950001F4D98462B7E012B07460E46144635D068
:1019600001234CF250302B76FFF7C6FFB0B9CFB948
:10197000184B1A6922F440721A611A691A611A69BD
:10198000E4B242F001021A6134704CF25030FFF7B9
:10199000B3FF104A136923F00103136100232B7670
:1019A000BDE8F081012F04D1A1B23046FFF730FF2E
:1019B000EBE7022F04D121463046FFF717FFE4E79B
:1019C000224643463046FFF7FBFEDEE70220E7E70C
:1019D00050340020003C0240074B1A6922F4407248
:1019E0001A611A6942F004021A611A6942F48032DB
:1019F00042EA002018617047003C024039B10129D9
:101A00001CD002290CBF4FF400714FF440710D4BF4
:101A10001A6922F440721A611A69114319611A692C
:101A200022F0F8021A611A6942F0020242EAC0008A
:101A300018611A6942F480321A6170474FF480715C
:101A4000E5E700BF003C0240144B1A6891050FD532
:101A50001A6822F400721A601A6842F400621A606E
:101A60001A6822F400621A601A6842F400721A605E
:101A70000A4B1A6852050FD51A6822F480621A6060
:101A80001A6842F480521A601A6822F480521A606E
:101A90001A6842F480621A60704700BF003C02403E
:101AA0002DE9F843234E337E012B044688463FD070
:101AB00001234CF250303376FFF71EFF0546A8B9DC
:101AC0004FF0FF33C8F800302368012B13D1207C7E
:101AD000FFF782FF4CF25030FFF70EFF164A1369F2
:101AE00023F0040305461361FFF7AEFF00233376AE
:101AF0002846BDE8F883A768DFF83C90D4E90223C4
:101B00001344BB42F0D9217C3846FFF777FF4CF2F3
:101B10005030FFF7F1FED9F8103023F0FA03C9F87E
:101B2000103018B1C8F800700546DDE70137E5E769
:101B30000225DDE750340020003C02402DE9F04F43
:101B400085B00B68DFF8A481664A01934FF0010B62
:101B50000023019D0BFA03F42540AC4240F0B28013
:101B60004E684FEA430E06F00304032707FA0EF708
:101B700004F1FF3CFF43BCF1010F00973CD8D0F8C3
:101B800008C00CEA070CCF6807FA0EF949EA0C0CFA
:101B9000C0F808C0D0F80490C6F3001C29EA050973
:101BA0000CFA03FC4CEA090CC0F804C0D0F80CC0D5
:101BB000009F0CEA070C8F6807FA0EF949EA0C0C33
:101BC000022CC0F80CC019D14FEAD30900EB8909E7
:101BD00003F0070AD9F820704FEA8A0A4FF00F0C79
:101BE0000CFA0AFC27EA0C0C0F6907FA0AFA4AEA0F
:101BF0000C0AC9F820A001E0032CD7D1D0F800C00E
:101C0000009F04FA0EF40CEA0707274316F4403F3E
:101C1000076057D04FF0000ACDF80CA0D8F84470F8
:101C2000314C47F48047C8F84470D8F8447007F442
:101C300080470397039F23F0030707F1804707F5C9
:101C40009C3703F0030ED7F808904FEA8E0E4FF042
:101C50000F0C0CFA0EFCA04229EA0C0C39D004F54A
:101C60008064A04237D004F58064A04235D004F5EA
:101C70008064A04233D004F58064A04214BF0724DE
:101C8000042404FA0EF444EA0C04BC601468EF4324
:101C900016F4803F0CBF3C402C431460546816F48B
:101CA000003F0CBF3C402C435460946816F4801FE6
:101CB0000CBF3C402C439460D468B60254BF3C40F7
:101CC0002C43D4600133102B7FF443AF05B0BDE843
:101CD000F08F5446D5E70124D3E70224D1E703244B
:101CE000CFE700BF003C0140000002400038024046
:101CF000F0B504468BB060B390F8BD33056803F0CF
:101D0000FF021BB980F8BC2317F032FA032384F8D2
:101D1000BD33EB6B254613F4807355F8100B08BFE9
:101D2000236101F0FBFA0FCD6E460FC60FCD0FC633
:101D300095E8030086E803002546271D97E80E0076
:101D400055F8100B01F030FA064620B1022384F852
:101D5000BD33012556E00146206801F0E5FA304622
:101D6000D4F804C01C264FF0010E0146C2B29445BF
:101D700000F101001CD800231C261946D8B2844566
:101D800003F1010322D80FCD6E460FC60FCD0FC64B
:101D900095E8030086E8030097E80E00206801F04C
:101DA00029FB0123054600B3022284F8BD23D0E7B6
:101DB00006FB0243C3E9111183F83DE083F83C20A0
:101DC000A3F8422083F83F101965CFE706FB0042D5
:101DD00082F8FD1182F8FC0182F8FF11C2F80412AA
:101DE000C2F80812C2F81012C8E784F8380084F864
:101DF000BD33636A012B02D1204600F056FC2068F7
:101E000001F043FE28460BB0F0BD90F8BC33012B27
:101E100010B5044616D00123006884F8BC33A36AC9
:101E2000012B06D1A369012B1EBF836B43F48033C2
:101E3000836301F06DFA206801F019FE002084F838
:101E4000BC0310BD0220FCE72DE9F04F056887B008
:101E50000446284601F056FE0290002840F03B81DF
:101E6000206801F020FE002800F03581206801F094
:101E70001AFE820748BF2268206842BF536903F0F8
:101E80000203536101F00FFEC3062AD5226893694D
:101E900023F0100393612E6AC6F34343022B06F02E
:101EA0000F0840F01B8147F6F0731E4214D01C2728
:101EB00007FB0847C6F30A163246D7F80812284629
:101EC00001F04CFDD7F808323344C7F80832D7F890
:101ED00014321E44C7F814622268936943F0100359
:101EE0009361206801F0DFFD070300F1068120689F
:101EF00001F0D9FD46030BD5206801F0E0FD264630
:101F00008246002705F51069BAF1000F40F0A38161
:101F1000206801F0C8FD002815DAD5F8043823F050
:101F20000103C5F8043894F8F433012B40F02E82F5
:101F3000002184F8F413204600F0CAFB226853699C
:101F400003F000435361206801F0ADFD00050BD59F
:101F5000D5F80838D90702D5204617F079F9226854
:101F6000536903F400635361206801F09CFD020192
:101F700014D523685A6902F000625A6194F8F42378
:101F8000002A40F007825B6D0121C3F3830384F8CC
:101F9000F413C4F8F833204600F09AFB206801F0EF
:101FA00082FDC30435D505F500667368206823F00B
:101FB00001037360102101F0E7F9606805F5106313
:101FC0004FF67F31029A904240F0E881F36943F086
:101FD0000113F361236B002B00F0FC81D6F88430F1
:101FE00043F00B03C6F88430736C43F00B03736447
:101FF000D5F80038217C206823F4FE63C5F800384A
:1020000004F5717201F092FD2268536903F4805364
:102010005361206801F047FD870416D5206801F060
:1020200075FD206801F09EFAE060256800F01AFC5A
:10203000227B0146284601F0F7F8204617F0F5F814
:102040002268536903F400535361206801F02BFDAB
:10205000060707D5204617F0E4F82268536903F015
:1020600008035361206801F01EFDC50208D5002158
:10207000204617F00DF92268536903F48013536169
:10208000206801F010FD800208D50021204617F0DD
:10209000FBF82268536903F400135361206801F0D0
:1020A00002FD410007D5204617F0F6F82268536973
:1020B00003F080435361206801F0F5FC42070AD524
:1020C00023685D686B0702D5204617F0E9F822689F
:1020D00053682B43536007B0BDE8F08F062B7FF4A5
:1020E000FBAE082204F5717128461C2701F036FC6E
:1020F00007FB0847C6F30A16E9E62068DFF8EC920A
:10210000DFF8ECB201F0D3FC00268046B8F1000FF6
:102110003FF4EDAE18F0010F61D05FFA86FA514638
:10212000206801F0D4FC0746F8071CD5730105F5BB
:1021300030621A4420680121916000F53062216903
:10214000D0F840C0134401299A686DD1110706D513
:10215000CC4508D9100406D54FF4004202E09106A0
:1021600041D520229A60380720D5730105F53062E9
:102170001A44082191602268D2F840A002F530622A
:102180001344CA459A6804D9110444BF4FF400426D
:102190009A60204617F02EF8CA4507D9216901290F
:1021A00004D104F57172206801F0C0FCFA0641BF49
:1021B00005F5306303EB461310229A60BB0641BF5E
:1021C00005F5306303EB461320229A60BF0441BF3C
:1021D00005F5306303EB46134FF400529A60013665
:1021E0004FEA580892E712F0280FBCD1CC4501D92C
:1021F0001204B1D41C2202FB06421B69D2F804125D
:10220000C3F31203CB1AC2F81432D2F808321944BD
:10221000C2F8081286B9D4F810326BB904F571729D
:10222000012101F083FC07E0DC450AD1110493D4BD
:10223000920601D520229A605146204616F0E0FF12
:1022400091E7002EF8D1D4F81032002BF4D104F528
:1022500071723146E5E71AF0010F74D05FFA87FB1F
:102260005946206801F03CFC10F0010F804620D058
:10227000D5F834382169012007F00F0200FA02F284
:1022800023EA0203C5F8343809EB4713814298600A
:102290000BD1D6E911231344B36437B9236D23B9A5
:1022A00004F57172206801F041FC5946204616F091
:1022B000B0FF18F0080F1EBF09EB471308229A6001
:1022C00018F0100F1EBF09EB471310229A6018F088
:1022D000400F1EBF09EB471340229A6018F0020F0F
:1022E0001EBF09EB471302229A6018F0800F2AD014
:1022F000D6E914329A4226D89B1A726C216803914F
:10230000934228BF134603339B08049301F51063DF
:1023100003EB47130593059B0498996989B28142A1
:10232000D6E9143214D293420DD8039B07F00F0262
:1023300003F5006B0121D3F8343801FA02F223EAE5
:102340000203CBF8343001374FEA5A0A1C36DBE57A
:102350009342EAD9002BE8D0A3EB0208736C0398F0
:10236000984528BF984608F103039B080493237CF3
:1023700000935A461FFA88F3B16C01F003FAB36C6C
:102380004344B364736D43447365C4E7204616F059
:1023900077FFD3E5204616F05BFFFFE599601A68EA
:1023A00022F400121A601A6842F000621A60C3F840
:1023B0000812D3F8002222F40012C3F80022D3F846
:1023C000002242F00062C3F80022029A0132029217
:1023D0002033F7E5736943F4005343F02B03736133
:1023E000336943F00B03336102E600BF0A30544FF8
:1023F0000A31544F90F8BC23012A10B504460BD083
:10240000012280F8BC2384F83810006801F01FFB1B
:10241000002084F8BC0310BD0220FCE770B501F079
:102420000F05044611F0800FC5EBC5004FEA800090
:102430004FF01C061FD006FB054600F13C010120B1
:10244000214486F83D008A604A780D70CB7002B155
:10245000CD80022B04BF00230B7194F8BC33012BF9
:1024600012D0012384F8BC33206801F086F80020E4
:1024700084F8BC0370BD06FB054600F5FE71002024
:10248000214486F8FD01DEE70220F3E710B504469B
:1024900001F00F00C0EBC00311F0800F4FEA83037F
:1024A0004FF01C0216D002FB004203F13C01012355
:1024B000214482F83D30087094F8BC33012B12D0CF
:1024C000012384F8BC33206801F096F8002084F8DA
:1024D000BC0310BD02FB004203F5FE710023214442
:1024E00082F8FD31E7E70220F3E738B501F00F0588
:1024F0001C2404FB050104FB050401F5FE71C4F86E
:1025000010320023C4F80822C4F8143284F8FD31D4
:1025100084F8FC5103690068012B08BFC4F80C2241
:10252000DAB21DB901F0BAF8002038BD01F03EF969
:10253000FAE71C2301F00F0103FB0101D1F814029B
:10254000704738B501F00F051C2404FB050104FB9E
:1025500005043C312365002363650123A26484F8EC
:102560003D3084F83C5003690068012B08BFE264E9
:10257000DAB21DB901F092F8002038BD01F016F969
:10258000FAE738B5436801F00F059D4204462ED89E
:1025900011F0800F4FF01C021FD002FB050102FB5F
:1025A000050301223C3381F83D2001229A701D7001
:1025B00094F8BC1391421CD084F8BC2319462068BF
:1025C00001F0F1F92DB904F57172217C206801F058
:1025D000ADFA002084F8BC0338BD02FB010302FB06
:1025E0000101002203F5FE7381F8FD21DDE70120E2
:1025F000F2E70220F0E738B5436801F00F029A4293
:1026000004462AD8C2EBC20311F0800F4FEA8303BD
:102610004FF01C0018D000FB024003F13C010123E5
:10262000214480F83D3000258D700A7094F8BC3349
:10263000012B14D0012384F8BC33206801F0DEF9AB
:1026400084F8BC53284638BD00FB024003F5FE71F8
:102650000023214480F8FD31E5E70120F3E7022063
:10266000F1E7006870B51204446A19B92243826226
:10267000002070BD836A4D1E04EB134400235E1CD2
:10268000DBB29D4205D83F3100EB8100224342601E
:10269000EEE7403300EB83035B6804EB13443346FF
:1026A000EDE7036800205962704702680346012184
:1026B000C0F8FC13002083F8F403936943F000632F
:1026C0009361536D43F0805343F0030353657047A8
:1026D00070470000134908B58B6803F00C03042B06
:1026E00003D0082B03D0104800E0104808BD4A680A
:1026F0004B68496813F4800314BF0C480A48C1F3BF
:10270000881118BF002302F03F02A1FB0001FEF771
:1027100055FD044B5B68C3F3014301335B00B0FB21
:10272000F3F0E3E7003802400024F40040787D0134
:102730002DE9F0410D46044610B90120BDE8F081B5
:10274000434B1A6802F007028A4228D321688F0798
:102750002DD4C80740D43E4B1A6802F00702AA42A3
:1027600065D8226851076BD4130707D5394A216908
:10277000936823F4604343EAC1039360FFF7AAFF21
:10278000344B354A9B68C3F30313D35CD840334BB7
:102790001860334B1868FEF731FF0020CEE7CAB24D
:1027A0001A701B6803F007038B42C6D1CEE7294B92
:1027B00011F0040F1EBF9A6842F4E0529A600E07AF
:1027C00042BF9A6842F460429A609A68A06822F018
:1027D000F00202439A60BCE762681E4B012A1CD1DA
:1027E0001B6813F4003FA8D01A4EB36823F003030C
:1027F0001343B360FEF74CFF41F288380746B368D5
:10280000626803F00C03B3EB820FA4D0FEF740FF25
:10281000C01B4045F3D9032090E7911E01291B6896
:1028200002D813F0007FDEE713F0020FDBE7EAB215
:102830001A701B6803F00703AB427FF47EAF90E78A
:102840000449E0688B6823F4E05303438B608BE713
:10285000003C024000380240CC7E0208FC08002008
:1028600004000020014B1868704700BFFC080020DE
:10287000044B054A9B68C3F38223D35C034A106868
:10288000D840704700380240DC7E0208FC08002077
:10289000044B054A9B68C3F34233D35C034A106878
:1028A000D840704700380240DC7E0208FC08002057
:1028B0000F2303600B4B9A6802F0030242609A6890
:1028C00002F0F00282609A6802F4E052C2609B68F3
:1028D000DB0803F4E0530361034B1B6803F00703B9
:1028E0000B60704700380240003C024002682DE94E
:1028F000F34112F0010504460BD08E494569D1F829
:102900008C3023F0C0632B43B5FA85F5C1F88C30C9
:102910006D0996070BD58748A169D0F88C3023F054
:10292000C0530B430029C0F88C3008BF01251007A5
:1029300030D5002301937F4B7F4E1A6C42F08052BA
:102940001A641B6C03F080530193019B336843F4BA
:1029500080733360FEF79CFE07463368D9055CD56B
:10296000744E336F13F4407360D1E36903F4407223
:10297000B2F5407F6F4A78D1916823F0704021F41E
:10298000F81120F4407001439160116FC3F30B0301
:102990000B43136723685F0742BF684B94F83820E6
:1029A0001A602268D60608D56249606AD1F8943068
:1029B00023F440030343C1F8943090060CD55D48DE
:1029C000A16AD0F8943023F000630B43B1F1006F9B
:1029D000C0F8943008BF0125510608D55549206A32
:1029E000D1F8943023F080530343C1F89430012D83
:1029F0003FD0802A3DD02068C20500F1908010F4BD
:102A0000007010D04B4A216BD2F88C3023F4004375
:102A10000B43C2F88C30002005E0FEF739FEC01BE6
:102A200002289AD9032002B0BDE8F081E26902F4DD
:102A30004072934299D0336F414A0121116023F4CF
:102A40004073002111603367336FDA078DD5FEF7CD
:102A50001FFE41F288380746336F9B0785D4FEF787
:102A600017FEC01B4045F7D9DCE7916821F4F81147
:102A70008AE7344D2F4E00232B60FEF709FE0746F0
:102A800033681B0145D4304B626B1A602268D7074C
:102A900001D563698BB1960701D5A3696BB1900627
:102AA00003D5A36AB3F1006F07D0510612D5236A8C
:102AB00083B9A36AB3F1006F0CD1D4E902131B06EA
:102AC00043EA811361680B43216943EA01731949A1
:102AD000C1F8843012060CD5D4E902231B0643EA60
:102AE000821362681343226943EA0273114AC2F8EF
:102AF000843001232B60FEF7CBFD0E4D06462B687C
:102B00001B013FF578AFFEF7C3FD801B0228F6D905
:102B100088E7FEF7BDFDC01B0228B1D982E7054A50
:102B2000E16AD2F88C3023F000430B43C2F88C30BA
:102B300065E700BF0038024000700040E0114742E6
:102B4000400E474268004742D810474270B5414C9A
:102B5000FEF79EFD236843F00103054623602368CA
:102B6000980757D5236843F080032360FEF790FD54
:102B70000023A360374C054641F28836A36813F062
:102B80000C0F4ED1FEF784FD236823F450232360FD
:102B9000304C05462368990349D4FEF779FD236834
:102BA00023F0807323602B4C054623689A0144D49C
:102BB000FEF76EFD236823F080632360254C0546F5
:102BC00023681B013FD4244B6360C4F88430E3685E
:102BD000224A23F4F853E360E36823F40053E360EC
:102BE000E36843F41F03E360E36843F40013E36026
:102BF000636F23F001036367636F43F08073636760
:102C0000174B1A60174B1868FEF7F8FC003018BF16
:102C1000012005E0FEF73CFD401B02289FD9032060
:102C200070BDFEF735FD401BB042A7D9F7E7FEF7B0
:102C30002FFD401B6428ADD9F1E7FEF729FD401BAD
:102C40000228B2D9EBE7FEF723FD401B0228B7D9D3
:102C5000E5E700BF00380240103000240024F400F3
:102C6000FC080020040000202DE9F341044608B9C7
:102C700001203FE00368DD0710D4236898075AD489
:102C800023681A0700F19C8023685B0700F1BA8073
:102C9000A069002840F01B8100202BE0A54B9A681A
:102CA00002F00C02042A07D09A6802F00C02082AEB
:102CB0000AD15B68590207D59E4B1B689A03DCD585
:102CC0006368002BD9D1D3E763689A4DB3F5803F91
:102CD00013D12B6843F480332B60FEF7D9FC954D5C
:102CE00006462B689B03C8D4FEF7D2FC801B6428E1
:102CF000F7D9032002B0BDE8F081B3F5A02F04D1CD
:102D00002B6843F480232B60E3E72A6822F48032A7
:102D10002A602A6822F480222A60002BDDD1FEF787
:102D2000B7FC06462B689F03A7D5FEF7B1FC801BB6
:102D30006428F7D9DDE77F4B9A6812F00C0F07D0B3
:102D40009A6802F00C02082A11D15B685E020ED468
:102D5000784B1A68950702D5E268012A88D11A686B
:102D6000216922F0F80242EAC1021A6088E7E268AB
:102D7000714BB2B101221A60FEF78AFC6D4D064616
:102D80002B68980707D52B68226923F0F80343EADC
:102D9000C2032B6074E7FEF77BFC801B0228EFD98F
:102DA000A7E71A60FEF774FC624D06462B68990788
:102DB0007FF566AFFEF76CFC801B0228F6D998E71A
:102DC00062695E4B7AB101221A60FEF761FC594DCF
:102DD00006466B6F9F073FF557AFFEF759FC801B08
:102DE0000228F6D985E71A60FEF752FC514D0646D7
:102DF0006B6F98077FF548AFFEF74AFC801B0228EF
:102E0000F6D976E74B4B1A6C12F0805228D101921A
:102E10001A6C42F080521A641B6C03F080530193C9
:102E2000019B0126464D2B68D9051BD5A368414D52
:102E3000012B27D12B6F43F001032B67FEF728FCF2
:102E40003C4D074641F288382B6F9B0739D5002E41
:102E50003FF41EAF374A136C23F08053136417E717
:102E60000026DFE72B6843F480732B60FEF710FC2D
:102E700007462B68DA05D9D4FEF70AFCC01B0228E6
:102E8000F7D936E7052B04D12B6F43F004032B67EA
:102E9000D0E72A6F22F001022A672A6F22F004028B
:102EA0002A67002BCAD1FEF7F3FB41F288380746A8
:102EB0002B6F9807CBD5FEF7EBFBC01B4045F7D92E
:102EC00017E7FEF7E5FBC01B4045BDD911E7194DDB
:102ED000AB6803F00C03082B49D01A4E00230228DC
:102EE000336037D1FEF7D4FB07462B6899012BD40A
:102EF000D4E907321343626A43EA8213E26A43EA7F
:102F00000263226B43EA0273A26A0A4C5208013A36
:102F100043EA02436B6001233360FEF7B9FB0546C9
:102F200023689A013FF5B8AEFEF7B2FB401B0228BA
:102F3000F6D9DEE60038024000004742800E4742E4
:102F40000070004060004742FEF7A2FBC01B022851
:102F5000CBD9CEE6FEF79CFB04462B689B017FF5A0
:102F60009BAEFEF795FB001B0228F6D9C1E60128AF
:102F70003FF4C0AE6B68E26903F4800191427FF4D4
:102F800077AE216A03F03F028A427FF471AE616A34
:102F900047F6C0721A40B2EB811F7FF469AEA26A95
:102FA000520803F44031013AB1EB024F7FF460AEB6
:102FB000E16A03F07062B2EB016F7FF459AE226BED
:102FC00003F0E043B3EB027F14BF0120002091E641
:102FD000704738B5044600285AD0436A002B53D1B5
:102FE0004268B2F5827F00D0C36194F8513003F09B
:102FF000FF0223B984F850202046FFF7E9FF21683B
:10300000A568A269A06A022384F851300B6823F0F6
:1030100040030B60636805F4044503F482732B439B
:10302000E56805F400652B43256905F002052B438F
:10303000656905F001052B4302F400752B43E56932
:1030400005F038052B43256A05F080052B4300F475
:1030500000552B430B60636A120C03F01003B0F5AC
:10306000005F02F0040242EA030208BFA38D4A6037
:1030700008BF0B61CB6923F40063CB6100200123FF
:10308000606584F8513038BD0023C0E90433ACE7F3
:103090000120F8E7304A0368904212D0B0F1804F27
:1030A0000FD0A2F57C4290420BD002F58062904294
:1030B00007D002F58062904203D002F57842904238
:1030C00019D14A6823F070031343234A904229D050
:1030D000B0F1804F26D0A2F57C42904222D002F57A
:1030E000806290421ED002F5806290421AD002F5B2
:1030F0007842904216D0194A904213D002F580626D
:1031000090420FD002F5806290420BD0A2F5983227
:10311000904207D002F58062904203D002F58062AF
:10312000904203D1CA6823F4407313434A6923F0E1
:103130008003134303608B68C3620B688362064B92
:10314000984203D003F58063984201D10B69036371
:1031500001234361704700BF00000140004001406F
:1031600082B000230F4A0193019B013393420193E4
:1031700015D80369002BF7DA002301930369094A84
:1031800043F001030361019B01339342019306D88D
:10319000036913F00103F6D1184602B0704703200B
:1031A000FBE700BF400D030084B038B505AD85E8EE
:1031B0000E000A9B012B044625D1836B23F4803338
:1031C0008363C36823F4840323F04003C360C368AC
:1031D00023F44013C360119B012B02BFC36843F467
:1031E0008013C360FFF7BCFF089B012B07D1A368C6
:1031F00043F00603A360A36843F02003A360BDE887
:10320000384004B07047C36843F04003C360FFF721
:10321000A7FF0E9B23B9A36B43F48033A363E3E7BB
:10322000A36B23F48033F9E7022A58D12E4B2F4A9F
:103230000B44934247D92E4B2E4A0B44934244D918
:10324000A1F574032C4AA3F5105393423FD9A1F181
:10325000837302F5C332A3F5E743A032934238D912
:10326000264B274A0B44934235D9264B02F592222E
:103270000B4402F5787293422FD9234B02F5C322F7
:103280000B4402F52072934229D9A1F1B77302F5DC
:10329000B712A3F5585302F55872934221D91B4B2C
:1032A00002F512220B4402F5F862934294BF072301
:1032B0000623C26822F47052C260C26842EA8323C5
:1032C000C360002070470F23F3E70E23F1E70D23BF
:1032D000EFE70C23EDE70B23EBE70A23E9E70923EC
:1032E000E7E70823E5E700BF405327FFFF340C0062
:1032F000401E1BFF3F420F007F4F120060B6E5FEED
:103300005FE3160000D3CEFEC05BB3FEE05459FE6F
:10331000836843F00103836000207047836823F0D3
:10332000010383600020704738B5C368012923F08A
:10333000C0430546C36010D1C36843F00053C36067
:1033400000240120FEF7AAF96B69D90704F10104F2
:1033500015D4322CF5D1012038BD0029FBD1C3682A
:1033600043F08043C3600C460120FEF797F96B6978
:10337000DA0704F1010402D5322CF5D1EBE7A4F110
:10338000320358425841E7E782B08901002341F0F7
:103390002001084A01930161019B0133934201938B
:1033A00006D8036913F02003F6D1184602B070471F
:1033B0000320FBE7400D030082B000230193084A7D
:1033C00010230361019B01339342019306D80369E3
:1033D00013F01003F6D1184602B070470320FBE744
:1033E000400D0300D0F800381943C0F80018002041
:1033F0007047000084B02DE9F843044609A880E82E
:103400000E000023139D0F46194603F1400204EB02
:10341000820201330F2B5160F7D104F50066002DB5
:103420006CD1736843F002037360A36B23F4001341
:10343000A363236843F040032360236843F08003C1
:1034400023600023C4F8003ED4F80038C4F80038E4
:103450000E9B012B59D10B99002954D12046FFF71F
:10346000C1FF10212046FFF78FFF01462046FFF7DE
:10347000A3FF00284BD1081C18BF01200023336193
:1034800004F5106273611946F3614FF0904C4FF0F0
:10349000006E4FF67F38BB423BD1002104F530620D
:1034A0000F464FF0904C4FF0006E4FF67F388B4236
:1034B00042D1336923F4807333610023A3616FF039
:1034C000804363610C9B1BB9A36943F01003A361A4
:1034D000A269234B1343A3610F9B1BB1A36943F064
:1034E0000803A361012D01BFA36943F0804343F0AA
:1034F0000403A361BDE8F84304B07047A36B43F431
:103500000013A3639DE71946A8E70321A6E701205E
:10351000B4E7D2F80090B9F1000F0BDA3BB9C2F86A
:1035200000E011610133C2F808802032B3E7C2F82D
:1035300000C0F6E71160F4E7D2F80090B9F1000F8F
:103540000BDA39B9C2F800E017610131C2F808801E
:103550002032ACE7C2F800C0F6E71760F4E700BF1E
:1035600000383C80D0F8083813F0060004D013F07F
:10357000020F14BF02200F20704730B50D780124D0
:1035800005F00F039C404B7800F50062012B00EB27
:103590004510D36918D11C43D461D0F800391A04FE
:1035A00010D48B68C978D0F80029C3F30A0343F01C
:1035B000805343F4004343EA814343EA8553134372
:1035C000C0F80039002030BD43EA0444D461D0F88B
:1035D000003B1B04F6D48B68C978D0F8002BC3F3EA
:1035E0000A0343F0805343F4004343EA8143134307
:1035F000C0F8003BE6E7000010B50A7849780129D9
:1036000000EB421302F00F0100F5006020D1D3F867
:103610000029002A0BDAD3F8002942F00062C3F82F
:103620000029D3F8002942F08042C3F80029012282
:10363000C46B8A40D2431440C463C1690A40C2616A
:10364000D3F80019134A0A40C3F80029002010BD1E
:10365000D3F8002B002A0BDAD3F8002B42F00062DB
:10366000C3F8002BD3F8002B42F08042C3F8002BA4
:103670004FF48032C46B8A40D2431440C463C169A2
:103680000A40C261D3F8001B034A0A40C3F8002B6A
:10369000DCE700BF007833EC0078F3EF4B78F0B54F
:1036A0000C784D69354E364F012B00EB441444D154
:1036B00004F51063B5B91D692E401E611D6945F4FE
:1036C00000251D611D692F401F61012A21D10A6952
:1036D00002B15A61D4F8003943F00443C4F8003908
:1036E0000020F0BDD3F810C00CEA07071F611F6966
:1036F0003E401E618E68AE421D6938BF4E6145F482
:1037000000251D614D691E69C5F3120535431D6114
:10371000DBE7D4F8003943F00443C4F800394B69BF
:10372000002BDDD00B78D0F8344803F00F020123D2
:1037300093402343C0F83438D2E704F53063186966
:1037400038401861186930401861886805B14861CF
:103750001D6945F400251D611D69C0F31200284351
:10376000012A186102D1CA6802B15A61D4F8003B3B
:1037700043F00443C4F8003BB2E700BFFFFF07E09B
:103780000000F8FF10B59DF808404CB9033300EB7A
:1037900002309B0800F5805001EB8303994201D170
:1037A000002010BD51F8042B0260F7E7F7B54D7803
:1037B0000C784B69CE78DFF89CC1DFF89CE1012DD5
:1037C00000EB44147CD104F510652F693BBB07EA7C
:1037D0000C072F612F6947F400272F612F6907EA33
:1037E0000E072F61012A41D10B6903B16B61012ED4
:1037F0000CD1D0F8083813F4807FD4F800390CBF0E
:1038000043F0005343F08053C4F80039D4F8003932
:1038100043F00443C4F80039002003B0F0BD07EAC8
:103820000E072F612F6907EA0C07D1F808C02F6136
:103830000CEB0307013FB7FBFCFC454FD5F810E04C
:1038400007EACC4747EA0E072F61D5F810C0C3F34B
:10385000120747EA0C07012E2F61C3D12F6927F009
:10386000C0472F612F6947F00057BAE7D4F80059D5
:10387000012E45F00445C4F800590CD0002BCBD0E4
:103880000B78D0F8344803F00F0201239340234310
:10389000C0F83438C0E7D0F8085815F4807FD4F861
:1038A00000590CBF45F0005545F08055C4F800594B
:1038B0000C7800929BB22246C968FFF763FFABE722
:1038C00004F530673D6905EA0E053D613D6905EA8D
:1038D0000C053D618D681BBB3B69C5F312051D439B
:1038E0003D613B6943F40023012A3B6102D1CB686F
:1038F00003B17B61012E0CD1D0F8083813F4807F1E
:10390000D4F8003B0CBF43F0005343F08053C4F89D
:10391000003BD4F8003B43F00443C4F8003B7BE792
:10392000DFF82CC0D7F810E02B44013BB3FBF5F3D4
:103930000CEAC34C4CEA0E0CC7F810C09BB2D7F887
:1039400010C06B43C3F3120343EA0C03CCE700BF80
:103950000000F81FFFFF07E00000F8FF70B500232C
:10396000940800F5805502F00302A34216D301EB40
:1039700084018AB100F580500C4605680023D80008
:1039800025FA00F0013304F8010B98B28242F6D117
:10399000013A92B201321144084670BD2E6841F8D6
:1039A00023600133E1E74A780B78012A00EB4310EA
:1039B00012D1D0F80029002A06DB2BB1D0F800394B
:1039C00023F08043C0F80039D0F8003943F40013E5
:1039D000C0F8003900207047D0F8002B002A06DB21
:1039E0002BB1D0F8003B23F08043C0F8003BD0F867
:1039F000003B43F40013C0F8003BEBE70B784A7838
:103A000000EB4310CB78012AA3F10203DBB20FD104
:103A1000D0F80029012B22F40012C0F8002905D8A3
:103A2000D0F8003943F08053C0F8003900207047C7
:103A3000D0F8002B22F40012012BC0F8002B9EBFFF
:103A4000D0F8003B43F08053C0F8003BEEE7D0F8DD
:103A5000003823F4FE63C0F80038D0F800380901BC
:103A600001F4FE611943C0F8001800207047D0F837
:103A7000003E23F00303C0F8003ED0F8043823F0E2
:103A80000203C0F8043800207047D0F8003E23F04D
:103A90000303C0F8003ED0F8043843F00203C0F836
:103AA0000438002070474269806910407047D0F8A0
:103AB000183800F50060C0691840000C7047D0F855
:103AC000183800F50060C069184080B2704700EBFC
:103AD000411100F50060D1F8082B40691040704793
:103AE00010B5D0F81048D0F8343800EB411001F090
:103AF0000F01CB4000F51060DB018068DBB223438F
:103B0000184010BD406900F001007047D0F800393E
:103B100023F4FF6323F00703C0F80039D0F804381A
:103B200043F48073C0F804380020704730B5056C4A
:103B3000104CA54200F5306303D9D0F8004B002C9F
:103B400016DB00241C611C6944F400241C611C6900
:103B500044F018041C611C69012944F0C0441C6134
:103B600001BF5A61D0F8003B43F08023C0F8003B0E
:103B7000002030BD0A30544F004870470800002034
:103B800010B5074C237853B9637843B9054B1B6FC5
:103B9000984794F8203043F0200384F8203010BD7B
:103BA000DC0B00202835002038B505460CF0EEF976
:103BB000022808D006F0E2FF044610B12846FFF7BD
:103BC000DFFF204638BD0124FBE7000000487047B6
:103BD0001400002090F820301B4A6FF3451310B5F5
:103BE00080F82030194B996690F8203001606FF30F
:103BF000C71380F82030D37F0C4643F0050143F013
:103C0000850380F8243064235377114BD177D3F8A0
:103C1000A4300120984701682046FDF7ADF8002147
:103C20000446FDF73DFA60B90A4B0B49D86DFDF724
:103C3000A3F82146FDF73EFA002814BF2B200020F0
:103C400010BD2920FCE700BFDC0B002070340020F1
:103C5000283500208C3700206666663F08B50C20AA
:103C600018F0FAFA034638B1084A07CA83E8070091
:103C700007490A682AB90B60181C18BF012008BD43
:103C80000A4691680029FBD19360F5E7880B002074
:103C90009C0B0020004870472C000020F8B5002540
:103CA000094E2C464FF07E57731964003946586907
:103CB000E4B2FDF7F5F908B944F00104043D15F14B
:103CC0000C0FF1D12046F8BD2000002010B5FFF701
:103CD000E5FF0D4B4FF07E5100229A605A601A604A
:103CE00059611961D960094B00229A77C4B2FFF774
:103CF000D5FFC0B2A0421FBF054A92F8203043F062
:103D0000020382F8203010BD200000207034002013
:103D1000DC0B002038B500F12202084C831C05465C
:103D200054F8221054F8230004EB8504FCF71CFF20
:103D3000D4F89410FCF718FF38BD00BF7034002091
:103D40002DE9F74F884606462D4D28B1022834D07C
:103D5000E87103B0BDE8F08F2F46044657F8A03F46
:103D60004FF0000B03F1080AA3F1040802464FF0DC
:103D70000103594657F8040D019299460093FDF747
:103D80008FF9DDE9003200B19146C7F800B04AF87A
:103D900004B944EA0904C245E4B2EAD1EE71002C48
:103DA000D7D0184A92F8213043F0040382F821302A
:103DB00003B0BDE8F04F0EF029BB1046FCF788FFBA
:103DC000114A142303FB082308F12407196BFDF79C
:103DD00087F805EB87038146014658684FF00104D8
:103DE000FDF75EF908B14FF0000405EB8707D5F841
:103DF000A030C7F80490E4B243F82890CEE700BFA3
:103E000070340020DC0B00208C370020022331B1FD
:103E1000012909D0012243700270002302E001222F
:103E2000017042708370704703700023437081708B
:103E3000704700002DE9F041284D294C95F8596054
:103E4000002E32D0A0220021204618F041FA254B46
:103E500014220021184618F03BFAC4F8A000224EA4
:103E60003068002832D1214EEB7FE376736F6365B3
:103E7000FFF72CFF1E49207D0AF0D2FD18B91D4B1B
:103E800007205B68984795F8593023B396F8FF30C0
:103E90009B0720D418490B200AF0C2FDD8B9154B56
:103EA00007205B68BDE8F04118478822314620466C
:103EB00018F00EFAD4F8A0000369E3670F4BD3F8AB
:103EC0002C31002BCBD031469847C8E7876818F0D3
:103ED000CBF93760C4E7BDE8F08100BFDC0B002000
:103EE00070340020143500209C0B00208C370020FB
:103EF00078340020F4360020F834002028350020E3
:103F0000094B0021002010B5084C99649876084BA5
:103F10002164D3F88C30984794F8203043F0100394
:103F200084F8203010BD00BF70340020DC0B00206E
:103F30002835002008B5074B00205876064B1B6F2C
:103F40009847064A92F8203043F0200382F8203048
:103F500008BD00BF7034002028350020DC0B002095
:103F60002DE9F84F0F4603785A1E1F2A064600F126
:103F70000100F8D93B2B05D02F2B09D1314B9B7D6C
:103F8000DB0604D5002333703046BDE8F88F0646C3
:103F9000DFF8B8A0B046354600242B7813B988F86E
:103FA0000030F1E7202B3DD9292B08D03B2B03D043
:103FB000282B2AD12C4637E0B4BB2C70EDE77CB31C
:103FC000214B93F8C63113F004031CD1DFB1D7F8AD
:103FD00000B0BBF1000F16D105225146204618F063
:103FE000ADFE814678B9A5EB040BABF1040B584646
:103FF00018F032F9386010B385F800905A46611D08
:10400000386818F05AF900240AE06CB9A3F161028B
:10401000192A98BF03F05F0388F8003008F10108FF
:104020000135BAE7002CFBD02A1B042AF8DCA3F1E7
:104030006102192A98BF03F05F032B70F0E7044672
:10404000EEE700BFDC0B0020283500203C0802080A
:104050002DE9F04FA9B028A9002341F85C3DFFF7F6
:104060007FFF0478064634B9119880B900242046B1
:1040700029B0BDE8F08F252C774A0FD144786CB970
:1040800092F8803083F0010382F88030ECE721461B
:1040900007F03CFF119818F0E7F8E8E76F4F6E4D16
:1040A000A8220021384618F013F90FCD07F10804B3
:1040B0000FC40FCD0FC495E8030084E803003378E4
:1040C00000240794242B8DF81440BDF81CB007D1B0
:1040D00001239B463B819DF81C30BB7287F824303E
:1040E0001BF0010F0CBF002303231293DFF87CA108
:1040F000002306931D461C46089304930993129BC4
:104100005A1C1292F75C002F34D19DF8143013F032
:10411000FF0F04D0049B002B08BF022304934E4DD5
:1041200095F8833033B1049B022B03D11BF0010FB0
:1041300002F0ED84494B93F8916016F0010F1C4694
:1041400004D0DA6F464B9A4202F3E4841BF001027A
:1041500094F8903000F0AC84580740F1D784E37AAB
:10416000002B00F0AC84A06B3E49FCF705FEA06379
:1041700000F0A5BC402F03D8242F03D0012476E7FC
:104180005A2FFBD813AA12A9304604F031FF20B9E8
:10419000002D02F0B384344B1393DDF84C8041467C
:1041A0004046FCF7AFFF002842F0E4844046FCF7AD
:1041B000E5FF0446FCF788FD01464046FCF7D2FCCB
:1041C0005146FCF7D9FD19F06BFEFCF7D7FF472FDE
:1041D00003464ED04D2F00F031820022243F14922E
:1041E000362F00F2B580DFE817F05404B300B300B7
:1041F000B300B300B300B300B300B300B300B30027
:10420000B300B300B300B300B300B300B300B30016
:10421000B300B300B300B300B300B300B300B30006
:10422000B300B300B300B300B3002A034E03580336
:10423000B3006203780386039403A203B300C103AF
:10424000CD03E303ED03F70301040B04B300B30054
:10425000B30024043404440470340020F40A002021
:10426000809698003333CB410000C07F0000C842E5
:10427000002300221592632C6AD8DFE814F0D200E4
:10428000D200D200D2008000D20069006400640035
:1042900069007900690069006900690069006900C6
:1042A0000701070107014901490169006900690027
:1042B0006900690069007900690079006900690096
:1042C000A5006900690069006900BE006900560127
:1042D000690069005D0169006900690069006900A1
:1042E0005D01C401C401690080007501750175019B
:1042F0007501750175016900940169006900690023
:104300006900690069006900690069006900690065
:10431000EE0069006900A500690069006900D70026
:10432000EE00EE00EE006900EE00EE0069006900AC
:10433000EE001201120179002E012E0139019E01B9
:104340009E01B801B801B74A92F85C20022A01D058
:1043500014248CE69DF85520E01F42F040028DF8B1
:1043600055204142B04A41415173D3B117247EE6F2
:104370002BB9049A0AB1182479E6012204929DF817
:104380005420A94942F0010224F002008DF8542083
:104390001C28E2B20A700DD10BB10A2BD8D11344FC
:1043A0000B70159B069A13EA020542F0AA831A4382
:1043B0000692A4E65C2CD8D11E2BC9D89B4ADA40C1
:1043C000D207C5D55C33EBE7994AD2F8A420002A7E
:1043D000BED0002BBCD1049B002BCCD19DF8543017
:1043E0009DF8102043F002038DF854308E4B1C8151
:1043F00083F8272002230493D3E78D4AD2F824219F
:10440000002AA5D0A3F114011E29A1D8874ACA40C9
:10441000D24312F001029BD10A24B3FBF4F41346F9
:104420008A34049A002AA6D1022204929DF85420CC
:10443000052C42F002028DF854200BD153B10A2B07
:1044400086D1794B33221A810023774A002182F8E2
:1044500027108AE7744A1481F7E7049A002A8AD160
:104460009DF8542042F002028DF854206E4A01213A
:1044700082F82710A1B211816E4A1288521A18BF11
:10448000012262F3410B022204926EE79DF8542050
:10449000654942F004028DF85420A4F111028A7398
:1044A00063E763B99DF85430A4F15B0743F0080358
:1044B0008DF854307A425C4B7A411A7371E79DF85B
:1044C00054200A2B42F010028DF854207FF440AFA4
:1044D0005A2C3FF43DAF5B2463E79DF854205249CA
:1044E00042F020028DF85420C4F15E028A723CE74B
:1044F0004F4AD2F8A420002A3FF42AAF9DF8542056
:1045000042F020028DF85420474A022191722CE794
:104510009DF85420A4F1140542F040028DF8542077
:104520006942414A6941D1721FE79DF8542042F027
:1045300080028DF8542018E79DF85520312C42F068
:1045400001028DF8552003D1374B0022DA7328E79A
:104550000A2B7FF4FDAE049B002B7FF40CAF324B93
:104560000222DA73032346E79DF855202E4942F0D4
:1045700008028DF85520A4F13602D2B23B2C0A77FE
:104580007FF4F3AE002B3FF40CAF1E2B3FF6E0AEF2
:104590002948D840C0077FF5DBAE0A20B3FBF0F313
:1045A0001A440A77FDE69DF8552042F010028DF876
:1045B0005520002B3FF4F5AECAE61A4A92F85C206B
:1045C000022A7FF4C5AE1A4A92F87920D2077FF505
:1045D000BFAE9DF85520144942F020028DF85520B9
:1045E000A4F1600282F0010281F82420BDE69DF86A
:1045F00055200D4942F002028DF85520A4F16202C7
:1046000081F82520B1E69DF85520A4F1330742F04A
:1046100004028DF855207942034A794182F8261028
:10462000042231E7DC0B0020F40A002001041040D2
:1046300028350020703400200004104000287FF44A
:1046400095AE0025332C15955ED8302C65D2052CFF
:104650001DD8032CC0F084809DF85630BE4A43F02C
:1046600002038DF85630611F92F8223018BF0121E5
:10467000201F61F300034142414161F3410382F88D
:104680002230B64A937D43F0400393757AE0092CBB
:1046900023D8072CC0F090809DF85630AF4A43F0E5
:1046A00004038DF85630937D082C43F04003937536
:1046B0004BF4807B00F09580092C00F09880A84B8B
:1046C00093F8C431DA077FF543AEA34A92F821305C
:1046D00043F0020382F8213054E01E2C40D0A04B5E
:1046E000D3F8A431002B3FF433AEA0B298479A4BD5
:1046F000588000283FF42CAE9DF8563043F010034C
:104700008DF8563001253DE0412C1CD83E2C79D245
:10471000382C70D00AD8352CE1D19DF8563043F0B2
:1047200008038DF856308C4B5C702AE03C2C17D077
:104730003D2CD4D19DF8563043F001038DF856300E
:10474000012309931EE0422C854B65D0442CC6D82A
:10475000D3F84421002A3FF4FBAD93F83F3159E0F0
:104760009DF8553043F080038DF855302CB1012C65
:104770000CD0794B83F8204003E0774B032283F879
:1047800020200025159B069A13420EE6744B93F8E1
:10479000C82195060AD59B6E984780F02000C0F38B
:1047A0004015002DEED06C4B0122E8E76B4B9D7D50
:1047B000ED43C5F3C015F4E76A4B93F82C30042B96
:1047C000E0D0674BD3F8FC2022B9D3F83031002B6E
:1047D0003FF4BEAD9DF8563043F001038DF85630DE
:1047E000CFE75D4A92F8213043F0010372E75A4B5C
:1047F00083F82150C6E75B4B93F828315B077FF5C0
:10480000A7AD8AE7564BD3F84021002A3FF4A0AD6C
:1048100093F83D315BB99BE5D3F84821002A3FF47A
:1048200097ADD3F83C3113F0FF1F3FF491AD9DF8E5
:104830005630089443F010038DF85630A2E79DF8E7
:10484000523043F004038DF85230434BC3F83080AC
:10485000DFF80491DDF85080D9F8907017EA080F5E
:1048600042F05281404B1B6818EA030F06D000212A
:104870001398FCF71FFC002840F0078247EA08075E
:10488000C9F890703BE49DF8503043F002038DF876
:104890005030314BC3F83480DAE79DF8503043F0A4
:1048A00004038DF850302C4BC3F83880D0E7002B30
:1048B0007FF45CAD9DF85030414643F0080340461C
:1048C0008DF85030FCF71EFC234B00280CBF22460D
:1048D0004FF0FF32C3F88420BAE7079B43F001038F
:1048E00007939DF8503043F010038DF850301A4B69
:1048F000C3F83C80ACE7079B43F0020307939DF8A5
:10490000503043F020038DF85030134BC3F84080F3
:104910009EE7079B43F0040307939DF8503043F054
:1049200040038DF850300C4BC3F8448090E7002BC7
:104930007FF41CAD9DF85030414643F08003404663
:104940008DF85030FCF7DEFB034B00280CBF2246ED
:10495000FF2283F88C207BE7F40A0020DC0B002088
:10496000283500208C3700204C0802089DF8513073
:10497000404643F001038DF85130FCF7D9FBB34BAF
:10498000D86765E7002B7FF4F1AC9DF851304146C4
:1049900043F0020340468DF85130FCF7B3FBAB4BBC
:1049A00000280CBF22464FF0FF32C3F880204FE7AB
:1049B0009DF8513043F004038DF85130A34BC3F8F8
:1049C0004C8045E79DF8523043F002038DF8523099
:1049D0009E4BC3F850803BE79DF8513043F00803ED
:1049E0008DF85130994BC3F8548031E79DF8513020
:1049F00043F010038DF85130944BC3F8588027E7EB
:104A0000002B7FF4B3AC671C02F087809DF8513017
:104A1000414643F0200340468DF85130FCF772FBCD
:104A20008A4B00280CBF22464FF0FF32C3F8882083
:104A30000EE79DF8143043F001038DF814309DF813
:104A4000513043F040038DF85130804BC3F85C8007
:104A5000FEE69DF8143043F002038DF814309DF803
:104A6000513043F080038DF85130784BC3F86080AB
:104A7000EEE69DF8143043F004038DF814309DF8F1
:104A8000523043F001038DF85230704BC3F864800C
:104A9000DEE6002B7FF46AAC9DF85030404643F0D0
:104AA00001038DF85030FCF743FB684B9867CFE665
:104AB000218921291ED159060FD4AB6EA36494F825
:104AC0009030D90737D5069AA36F920302F15B8025
:104AD000002BC0F2DA8002F058B862F3861384F833
:104AE0009030E37A606C1BB15949FCF745F960647A
:104AF000A064E4E7A27A012A0BD1049A022ADED14B
:104B00005029DCD00029DAD05F07D8D41624FFF76B
:104B1000AEBA12F0FD0FD2D158073FF520ABAB78FB
:104B20009342CCD16B6EA363C9E794F890306FF3D6
:104B3000000384F89030069BC3F307239F060A9373
:104B400006F0100822D594F82490B9F1010F63D132
:104B5000B8F1000F02D11C24FFF789BA3D4BD3F8FE
:104B6000847094F89230580754D5246B3946204607
:104B7000FCF7A0FA00B12746344B6F6593F89220FA
:104B80006FF3820283F8922085F81C90B8F1000F31
:104B900002F00980304B5B7883F01002C2F3001200
:104BA000D9060C9245D5099B002B5DD0274D95F871
:104BB0009240A207CFD52F6D384618F027FF39460F
:104BC000FBF7D0FF0021FCF76BFA00283FF4CEABD7
:104BD0003846FCF7D3FA431C01F09F876FF341047A
:104BE000C5F8880085F89240069BC3F3074313F08D
:104BF00010040B936ED0089B002B6BD03E3B062B12
:104C000068D8DFE813F03800380038003800860034
:104C1000ED00ED006F65B7E72B7F012B02BF0F4B57
:104C20001B6CAB64B0E7AB6C084A936500230C9334
:104C3000B9E72B7F012BB6D1044CE27AA06D8AB183
:104C40000749FCF799F8A065ADE700BFF40A00201A
:104C50003333CB4128350020D00B0020DC0B002063
:104C6000666698437A49ECE7B7065EBF794BEA6F10
:104C7000C3F88820B8E776077FF56DAF754DEF6C08
:104C800000213846FCF716FA10B10424FFF7EFB9FB
:104C90003846FCF773FA704B93F83D310130984277
:104CA00001F27687012685F894603846FCF766FAAB
:104CB000089B85F896003E2B03D0A3F140056E4279
:104CC0006E41644B93F89120C3F898606FF38202B1
:104CD00083F891200B9B5F4D13F0080F00F0C88004
:104CE00095F89160720700F1A7804FF07E53EB6456
:104CF0006B78584E303B082B00F2BA80DFE813F097
:104D0000B00038013D014C01B8005901B800B800AD
:104D10006601504B514AD3F890100A40002A3FF4E4
:104D20001AAFB3F8901040F202428A4301F0F886BD
:104D300093F88C50042D01F22B8735B10021186DAA
:104D4000FCF7AEF9002841F02387700719D5414ED2
:104D5000F76C00213846FCF7ADF9002895D13846AC
:104D6000FCF70CFA3C4B93F83C310130984201F2CD
:104D70000F87012386F894303846FCF7FFF986F850
:104D80009600344E96F89030990714D5776B3846D4
:104D9000FCF7F4F9304B93F83E310130984201F2C0
:104DA000F786002D41F0F48686F894503846FCF7DB
:104DB000E5F986F8960096F892306FF3410386F88D
:104DC000923096F891306FF3820386F8913096F81E
:104DD000903003F07F036FF3410386F8903079E75A
:104DE0001C4DD5F8903013F0021F3FF4B4AE6F6B3A
:104DF0003846FCF7C3F9184B93F83F31013098421D
:104E000001F29D86002685F894603846FCF7B6F9D5
:104E100085F89600286DFCF78BF995F89230C5F867
:104E2000980066F3410385F8923095F8903066F368
:104E3000410385F890304DE70021E86CFCF73AF922
:104E400000287FF422AF60F3820685F891604FE777
:104E500000007A44F40A0020283500208000020077
:104E600095F8233003F0FE036FF3820385F82330B7
:104E7000D4B1604E7388BBB131465F4F51F8903F5B
:104E80003B605E4B3046D3F8A83198470446002873
:104E90007FF4EDA83B68D6F89020079053403B6024
:104EA0009DF81C308DF81430524E3378042B0FD1FE
:104EB00096F8914067077FF54EAE0021F06CFCF745
:104EC000F9F800287FF4E1AE60F3820486F891409F
:104ED000A97B10A8FEF79AFFEB7AA3B19DF8147096
:104EE000DFF81081DFF824910324013C27FA04F352
:104EF000DE0706D508EB84064946F06DFBF73CFF5C
:104F0000F065002CF1D10A9B5C060FD5394B3C4C67
:104F10003C49587B4A7994F820304871C3F3C00665
:104F20004240324362F3C30384F82030354B5B794F
:104F30004BB19DF81430D80705D5E86D4FF07C5182
:104F4000FBF71AFFE865049B042B40F0BC80294B5B
:104F500093F82690B9F1000F00F018819DF81460C5
:104F6000002483F82640002E52D11A24FFF77FB880
:104F700095F8233043F0050378E70021F06C4FF0FB
:104F80000107FCF78DF800B9074696F8233067F360
:104F9000000386F823306BE70021F06C4FF0010727
:104FA000FCF77EF800B9074696F8233067F38203D2
:104FB000EFE70021F06C4FF00107FCF771F800B942
:104FC000074696F8233067F34103E2E70E4B93F868
:104FD00028315B077FF54CAF0021F06C4FF00107E3
:104FE000FCF75EF800B9074696F8233067F3C30371
:104FF000CFE700BFF40A0020D00B002028350020A6
:10500000DC0B0020703400208C3700203333CB4180
:10501000DFF8B881DFF8BCA10D9327460325013DD9
:1050200026FA05F3D90720D50D9B98F82020AF006C
:105030003B449207DB6D00F1A5800AEB070219469D
:10504000D0680E93FCF72CF80E9BB0FA80F0400964
:10505000574498F82020FB60012360F34102AB40E5
:1050600088F8202026EA03064F46002C40F08C806A
:105070004FF07E515AF82500FCF712F8B0FA80F490
:105080006409002DCBD10FB18DF814604D4B4E4902
:10509000D3F89020096883F8264022EA0102C3F879
:1050A00090204A4B4A4993F8202093F8200012F0B0
:1050B000020F08BF8A7F8C770CBF6240012262F327
:1050C000410083F82000424B9B7FDBB13D4D9DF8B2
:1050D00014802B7B3F4F0D930324013C28FA04F3EB
:1050E000DB070DD5A300EE183B44F06DD3F80C9010
:1050F0000D9B002B4DD001464846FBF73DFEF06569
:10510000002CEAD10A9B2F4D13F001030D9308D018
:10511000EB7B022B05D19DF8143013F0FF0F01F04B
:1051200002850A9B1F0740D42E789DF814400A2E52
:1051300054D05C2E00F04481CCB1049B032B16D0DC
:105140002B7BDFF880A0DFF888900A9300250327E7
:10515000013F24FA07F3DB0700F15F8105EB090249
:105160000AEB0503526F5A66043D002FF0D11E2E44
:1051700000F07781352E00F08C811C2E40F0978056
:1051800009206FE1012063E701247AE7FEF79EFD25
:1051900099E757F824A05146FBF7E4FC4946FBF792
:1051A000EBFD5146FBF7E0FCA9E7094B287F1B7D8F
:1051B0008342B9D0084909F033FC0028B4D1072450
:1051C000FEF755BFF40A002038080208DC0B002067
:1051D0007034002020000020040B00204CB995F80A
:1051E0008C30142B3FF4C1AE95F891301E077FF53B
:1051F000BCAEB5F8903003F49063002B3FF4ABAC39
:10520000EE6C00213046FBF755FF00287FF43DADE2
:10521000304618F0CFFE95F88C30022B00F0C3809A
:10522000142B7FF495A8FBF7A9FFC0B2092801F25F
:105230007D84A84E002840F0BC80307FA64986F8C7
:10524000740009F0EDFB0028B9D096F88CA0DFF8C7
:105250008492A24A0327013F24FA07F3D90718D5FD
:10526000BAF1140F4FEA870540F0A68002EB05085B
:105270004D44D8F86C00E96D0A92FBF773FCD8F83E
:105280008810FBF76FFCD8F89410FBF76BFC0A9AB8
:10529000A866002FDFD196F8913067F3820386F875
:1052A000913096F8903067F3C71386F89030894BA9
:1052B0001D89502D1A4640F0F6809DF8143013F0E9
:1052C000FF0F03D0049B012B41F03384002382F8AD
:1052D00025301BF00102DFF8FC9100F09C8699F864
:1052E00090306FF3820389F8903099F891306FF322
:1052F000000389F89130049B3BB1794AD9F890308A
:10530000126823EA0203C9F89030D9F890100029F6
:1053100041F02A8434221BA816F0DAFF1BF0010F9B
:1053200000F08C866F4B069A1B6832EA030341F04B
:105330001E8499F80030352B02D0002B41F01784E1
:10534000664E06F148050FCD1CAC0FC495E807006A
:1053500084E80700727E8DF88F2096F88220B37E55
:105360008DF88E30002A40F0668613F0020305D0D7
:105370005D4B93F85C30581E434243419DF88C20AE
:10538000544963F386121BA88DF88C2002F0CEFFDF
:10539000044600287EF46BAE544A554B07CA83E896
:1053A0000700FEF764BE95F891301D073EF5D0AFBB
:1053B00039E70138C0B241E74D44EB6DAB6668E7B1
:1053C000002C3FF4D2ADDFF81491DFF808A10025DE
:1053D0000326013E24FA06F3DA0716D50AEB050880
:1053E00009EB0507D8F81810786FFBF7BBFBD8F866
:1053F0006410FBF7B7FBD7F89C10FBF7B3FBC8F8BA
:105400006400043D002EE4D151E709EB05020AEBEC
:105410000503D2F890205A66F3E7352E3FF4A4AE88
:105420000AEB05080A9AD8F8643042B109EB050284
:105430001946506FFBF798FBC8F8640094E609EB37
:105440000502D8F81800D2F890100F930E92FBF7CF
:105450008BFB0E9AD2F89C10FBF786FB0F9B19462C
:10546000E8E70A201C4909F0DBFA00283FF4A7AE60
:10547000BCB1184919480323013B24FA03F2D707AA
:1054800004D49A008D180244D26EAA66002BF3D180
:105490000DE7104B1B89012B7FF609AF1E24FEF789
:1054A000E6BD049403E7049A022A7FF412AF0B4A84
:1054B000B2F800A0B5EB0A0218BF012262F3492B33
:1054C000C5B99DF8143013F0FF0F7FF402AF00232D
:1054D0000493FEE6F40A00205C0B002070340020E8
:1054E0003808020848080208DC0B0020500B002096
:1054F000DC34002093F827200AB983F82520724B6A
:1055000093F82420012A1C460BD193F82220D607B9
:1055100041F112830021986DFBF7C2FD002841F094
:105520000B83212D40F0D6800021A06CFBF7B8FD45
:10553000002841F02D834BF0200B634A92F827306E
:105540001446002B00F0C1821BF0020A27D05F4BEB
:105550009978012901F0F68292F8912016077FF5DB
:10556000FAAA9DF842209DF81410D140CD077FF58E
:10557000F2AA9DF840100A31002043F821009DF85E
:10558000411098630A3103EB820243F821000121A4
:1055900083F84410D26EDA63002183F845104A4B39
:1055A00093F99020002A1E46C0F20282012386F859
:1055B0008C3096F891301C0716D5F37A706D002B5D
:1055C00000F0FE814249414DFBF7D6FB337B9DF84D
:1055D00042400746002B00F0F68105EB8404E16EA3
:1055E0003846FBF7C1FA2864374E9DF8143007930C
:1055F000337B9DF842500A93344B05F11A089946C3
:105600001F6C05F10A0303240E9309EB8808079B1E
:10561000013C23FA04F2D0070DD5A200B1184A4488
:10562000C86D9062A54200F0EB81D16E0F92FBF73E
:1056300099FA0F9A9062002CE9D1DFF890800A3530
:10564000384658F825603146FBF734FD45460028BA
:1056500041F07B821C4B93F89020B3F8088064F3F0
:10566000C71283F8902093F8912064F3C30283F863
:105670009120A8F149021C46102A3FF62AAE01A348
:1056800053F822F07F5A0008D3520008D352000882
:10569000D3520008D3520008D3520008D352000856
:1056A000D3520008595A0008315A00087F5A00089E
:1056B000D3520008595A00081F5A0008D352000854
:1056C000D35200081F5A0008F40A0020703400204A
:1056D0003333CB414C2D40F06281A37B012B41F051
:1056E00040829DF8149019F0FA0F41F03D8294F831
:1056F0009130180707D54FF07E51606DFBF7DAFC4B
:10570000002841F0458219F0040F3FF424AAB64C5A
:10571000B4F8903003F48E63002B3FF41CAAE36CC2
:105720000A9300211846FBF7C5FC002600287FF4E9
:10573000ACAA276C31463846FBF7BCFC00287FF446
:10574000A4AAD4F8448031464046FBF7B3FC0028B5
:105750007FF49BAAE56B31462846FBF7A1FC0028A5
:1057600041F0168231463846FBF79AFC002841F09A
:105770000F8241463846FBF7B1FC002841F0088211
:1057800094F99030002B04DA94F88C30032B01F25A
:10579000FF81964B9C6C964B0E93D3F8801020465D
:1057A000FBF788FC002841F0CA810E9B2046D3F805
:1057B0008410FBF79DFC0146002841F0C081BAF13E
:1057C0004C0FDFF838A208D018220AEB020016F0BE
:1057D0007FFD4FF07E53CAF814300A9BCAF80030A0
:1057E000814B0E935C6ECAF8044000212846FBF7FB
:1057F00061FC0E9B002800F0CF807E4ADFF8FCA100
:10580000DB7ACAF8242025F00040CAF80800CAF85C
:105810000C70CAF8108083B17749FBF7ADFA76496E
:10582000CAF808003846FBF7A7FA7349CAF80C0013
:105830004046FBF7A1FACAF810006B4B5B7B93B1B3
:105840006E4D4FF07C51A868FBF796FA4FF07C51F3
:10585000A860E868FBF790FA4FF07C51E86028698F
:10586000FBF78AFA286119F0010F33D05E4D5F4FC4
:105870002869D7F88810DFF88481FBF775F9D7F825
:105880009410FBF771F90146E86DFBF76BF9796F3E
:10589000C8F8180081462046FBF764F920F0004361
:1058A000EB64044649464846FBF766FA214607463C
:1058B0002046FBF761FA01463846FBF755F918F028
:1058C0008DFB01460A98FBF757FAE96CFBF708FBDA
:1058D000C8F80000444C494F94F89030474D13F0FD
:1058E000080F1CBFD4F88420BA62190644BF94F88C
:1058F0008C2087F82C209A0744BF636BFB61002142
:10590000F869FBF7E1FB10B997F82C301BB90023BD
:10591000EE6185F82C3095F82C30B3B1334B6868C4
:10592000596FFBF71FF9FBF703FC0028B8BF404293
:10593000FBF7CEF94FF07C51FBF71EFA0146E86900
:10594000FBF7D6FB002841F0238194F891301B0728
:1059500042BF2A4B626D5A6194F892309F0742BF52
:10596000264B226D1A6294F8913094F8922003F03D
:10597000F7036FF3820384F8913094F8903003F0CA
:1059800007036FF341026FF341034BF0200B84F8E0
:10599000922084F89030D0E54FF07E522EE700211F
:1059A000A06BFBF77DFB00283FF4C7ADFFF7AEB857
:1059B00093F88C30002B7FF4FCAD1324FEF757BB1B
:1059C0004FF07E51FFE5231D04F1220205EB840414
:1059D00055F8221056F82300FBF7C6F8D4F89410B7
:1059E000FBF7C2F80146FBE5F40A00207034002002
:1059F00028350020000080BF3333CB41A00B0020AE
:105A00000A9B002B3FF417AED8F80410FBF7AAF856
:105A10003946FBF7A9F80E9B49F823000BE6A8F1DD
:105A20005601A04B4A424A4183F8452083F844205E
:105A300094F891506B071DD5D4F84C90002148463E
:105A4000FBF738FB00287FF420A9964B60F3820512
:105A5000C3F8389084F8915031463846FBF782F805
:105A6000904CB8F1550F60637FF433AC002384F899
:105A700044302EE4BAF1000FEED0FFF76CB894F882
:105A8000923098071CD5266D00213046FBF71CFB91
:105A900000287FF4FAA8E37A7BB183493046FBF70C
:105AA0006BF9686394F892306FF3410384F8923095
:105AB0007C4B4FF07A529A630BE44FF07E51EDE746
:105AC000BAF1000FF4D0FFF746B81389332B00F07A
:105AD000658268D8022B00F0888004D8012B3FF43F
